:020000040800F2
:100000000028002061110008CD100008D31000085E
:10001000D9100008DF100008E510000800000000FB
:10002000000000000000000000000000EB100008CD
:10003000F710000800000000031100080F1100086D
:10004000A9110008A9110008A9110008A9110008A8
:10005000A9110008A9110008A9110008A911000898
:10006000A9110008A9110008A9110008A911000888
:10007000A9110008A9110008A9110008A911000878
:10008000A9110008A9110008A9110008A911000868
:10009000A9110008A9110008A9110008A911000858
:1000A000A9110008A9110008A9110008A911000848
:1000B0001D110008A911000800000000A911000886
:1000C000A91100080000000000000000A9110008AC
:1000D00000000000A9110008A9110008000000009C
:1000E000A9110008A9110008A911000800000000CA
:1000F0000000000000000000000000000000000000
:0C01000000000000000000005FF808F1A3
:10010C0010B5054C237833B9044B13B10448AFF345
:10011C0000800123237010BD24000020000000008B
:10012C00A827000808B5034B1BB103490348AFF3DC
:10013C00008008BD0000000028000020A82700084F
:10014C0080B483B000AF214B1A68214B1B68134459
:10015C007B60204B1B687A689A4229D01E4B1B6827
:10016C00022B0ED11B4B1A68194B1B68D31A174A5A
:10017C001360164B1B68012B1ADC144B02221A60FD
:10018C0016E0154B1B68042B07D1104B1A68104B4B
:10019C001B6813440F4A13600AE00F4B1B68032BB8
:1001AC0006D10A4B1A680A4B1B681344094A1360A0
:1001BC00084B1B68094A1360044B1B68084A136000
:1001CC0000BF0C37BD4680BC704700BF0C00002040
:1001DC000800002004000020000000201000002077
:1001EC001400002080B500AF914B1B78022B5CD023
:1001FC00022B69DC002B02D0012B42D064E00020E2
:10020C0000F0DEF90346002B39D0894B01221A701D
:10021C00884B1B680133874A1360864B1B68042B81
:10022C0002DD844B01221A60824B1B68013B032BBD
:10023C0045D801A252F823F07302000855020008B9
:10024C005F020008690200087B4B1B687B4A136045
:10025C0016E07B4B1B68794A136011E0794B1B68E5
:10026C00764A13600CE0784B00221A60724B1B68C4
:10027C00764A1360734B1B68754A136000E000BF2D
:10028C001DE0002000F09CF90346002B03D1684BC5
:10029C0000221A7015E0002000F0ACF90346002B88
:1002AC000FD0634B02221A700BE0002000F088F98B
:1002BC000346002B07D15E4B00221A7003E000BFEF
:1002CC0002E000BF00E000BF5A4B1B68012B3ED080
:1002DC00604B1B78022B30D0022B3FDC002B02D062
:1002EC00012B16D03AE0012000F06AF90346002BEE
:1002FC002FD0584B01221A70504B1B6801334F4AB8
:10030C0013604E4B1B68632B23DD4C4B01221A6090
:10031C001FE0012000F054F90346002B03D14D4B94
:10032C0000221A7017E0012000F064F90346002B3C
:10033C0011D0484B02221A700DE0012000F040F958
:10034C000346002B09D1434B00221A7005E000BF75
:10035C0004E000BF02E000BF00E000BF354B1B68AB
:10036C00012B5CD03C4B1B78022B4ED0022B5DDC5E
:10037C00002B02D0012B34D058E0022000F020F9E1
:10038C000346002B4DD0344B01221A70294B1B68AD
:10039C00042B10D0042B13DC022B02D0032B05D022
:1003AC000EE0264B1B68244A136009E0234B1B68A4
:1003BC00234A136004E0214B1B68224A136000BFE0
:1003CC00FFF7BEFE1B4B01221A601F4B00221A6066
:1003DC00194B1B681D4A13601A4B1B681C4A13608F
:1003EC001FE0022000F0ECF80346002B03D11A4B5F
:1003FC0000221A7017E0022000F0FCF80346002BD4
:10040C0011D0154B02221A700DE0022000F0D8F822
:10041C000346002B09D1104B00221A7005E000BFD7
:10042C0004E000BF02E000BF00E000BF00BF80BDE1
:10043C004C0000200000002004000020440000209C
:10044C00080000200C0000204000002010000020BC
:10045C00140000204D0000204E00002080B400AF9E
:10046C000B4B1B68012B0FD00A4B1B78022B0BD1AB
:10047C00094B1B680133084A1360074B1B68632B3D
:10048C0002DD054B01221A6000BFBD4680BC7047DF
:10049C00000000204D0000204400002080B582B0F8
:1004AC0000AF00237B6077E03F4A7B6813441978E8
:1004BC003E4A7B6813440A461A707B68022B21D093
:1004CC007B68022B2ADC7B68002B03D07B68012B1A
:1004DC000CD023E00221364801F04CF903461946B2
:1004EC00314A7B6813440A461A7018E004213048DC
:1004FC0001F040F9034619462B4A7B6813440A461F
:10050C001A700CE008212A4801F034F90346194608
:10051C00254A7B6813440A461A7000E000BF224A41
:10052C007B6813441A7821497B680B441B789A42E8
:10053C0008D11D4A7B68134419781E4A7B68134402
:10054C000A461A701B4A7B6813441B78012B16D180
:10055C00194A7B6832F81330632B0AD8164A7B6829
:10056C0032F81330013399B2134A7B6822F8131016
:10057C000FE0124A7B68134401221A7009E00E4AFC
:10058C007B68002122F813100C4A7B68134400226C
:10059C001A707B6801337B607B68022B84DD00BFA3
:1005AC0000BF0837BD4680BD540000205800002015
:1005BC000008014050000020600000205C0000207A
:1005CC0080B483B000AF0346FB71FB79022B01D9D9
:1005DC00002307E0FB79064AD35C012B0CBF0123F7
:1005EC000023DBB218460C37BD4680BC704700BFF9
:1005FC005000002080B483B000AF0346FB71FB7940
:10060C00022B01D9FF2307E0FB79064AD35C012BAF
:10061C000CBF01230023DBB218460C37BD4680BC4F
:10062C00704700BF5C00002080B584B000AFF8605C
:10063C00B9607A603B60FB68002B21D1BB68002B52
:10064C0014BF01230023DBB21A4601211F4801F01D
:10065C00A8F87B68002B14BF01230023DBB21A46D9
:10066C0002211A4801F09DF83B68002B14BF0123AE
:10067C000023DBB21A460421144801F092F820E062
:10068C00BB68002B14BF01230023DBB21A460821E0
:10069C000E4801F086F87B68002B14BF0123002361
:1006AC00DBB21A461021094801F07BF83B68002B9D
:1006BC0014BF01230023DBB21A462021034801F0AA
:1006CC0070F800BF1037BD4680BD00BF000C014064
:1006DC0080B500AF00223F21024801F062F800BF54
:1006EC0080BD00BF000C014080B582B000AF00237C
:1006FC007B6013E0704A7B6852F82330002B05DBDB
:10070C006D4A7B6852F82330092B04DD6A4A7B68FA
:10071C00002142F823107B6801337B607B68032B3C
:10072C00E8DD654B1B68DBB203F00103DBB21A4654
:10073C001021624801F035F85F4B1B685B10DBB28F
:10074C0003F00103DBB21A4620215C4801F029F8C2
:10075C00594B1B689B10DBB203F00103DBB21A464A
:10076C004021564801F01DF8534B1B68DB10DBB2DF
:10077C0003F00103DBB21A468021504801F011F856
:10078C004D4B5B68DBB203F00103DBB21A464FF44E
:10079C0080714A4801F005F8474B5B685B10DBB28F
:1007AC0003F00103DBB21A464FF40071434800F02A
:1007BC00F8FF414B5B689B10DBB203F00103DBB22B
:1007CC001A464FF480613D4800F0EBFF3A4B5B68F2
:1007DC00DB10DBB203F00103DBB21A464FF400610D
:1007EC00364800F0DEFF344B9B68DBB203F00103AC
:1007FC00DBB21A464FF48051304800F0D2FF2E4B3A
:10080C009B685B10DBB203F00103DBB21A464FF4BA
:10081C0000512A4800F0C5FF274B9B689B10DBB2A8
:10082C0003F00103DBB21A464FF48041234800F079
:10083C00B8FF214B9B68DB10DBB203F00103DBB28A
:10084C001A464FF400411D4800F0ABFF1A4BDB6811
:10085C00DBB203F00103DBB21A464021184800F06A
:10086C00A0FF154BDB685B10DBB203F00103DBB2BE
:10087C001A468021124800F094FF0F4BDB689B1046
:10088C00DBB203F00103DBB21A464FF480710C4863
:10089C0000F087FF084BDB68DB10DBB203F00103D1
:1008AC00DBB21A464FF40071054800F07AFF00BF26
:1008BC000837BD4680BD00BF68000020000801401D
:1008CC00000C014080B500AF704B1B68012B40F051
:1008DC00D3806F4B1B686F4A82FB03129210DB179D
:1008EC00D31A6D4A13606A4B19686A4B83FB012358
:1008FC009A10CB17D21A13469B0013445B00CA1AEA
:10090C00654B5A60654B1B68624A82FB031292105E
:10091C00DB17D31A604A9360604B19685D4B83FBFD
:10092C0001239A10CB17D21A13469B0013445B0079
:10093C00CA1A594BDA605A4B1B68032B00F2A5807C
:10094C0001A252F823F000BF65090008A9090008AC
:10095C00F5090008390A00080023002201210020B3
:10096C00FFF762FE0123002200210120FFF75CFE4D
:10097C00474B1B68013B464A1360484B1B68013BC5
:10098C00464A1360454B1B68002B77DC444B012215
:10099C001A60444B1B68414A13606FE0002300222D
:1009AC0001210020FFF740FE00230122002101203D
:1009BC00FFF73AFE364B1B68013B354A1360374B49
:1009CC001B68013B354A1360344B1B68002B57DC0A
:1009DC00334B02221A60344B1B682D4A1360334B85
:1009EC001B682E4A13604BE00123002200210020DB
:1009FC00FFF71AFE0023002201210120FFF714FE4D
:100A0C00234B1B68013B224A1360244B1B68013BA0
:100A1C00224A13601E4B1B68002B33DC204B032235
:100A2C001A60204B1B681A4A13602BE0002301222A
:100A3C0000210020FFF7F8FD0023002201210120F6
:100A4C00FFF7F2FD124B1B68013B114A1360134B6D
:100A5C001B68013B114A13600D4B1B68002B13DC08
:100A6C000F4B00221A60114B1B68094A13600E4B86
:100A7C001B680A4A136007E000BF06E000BF04E0F1
:100A8C0000BF02E000BF00E000BF80BD00000020FE
:100A9C0010000020676666666800002014000020C5
:100AAC0040000020080000200C0000200400002062
:100ABC0080B500AF214B1B68012B3CD0204B1B6831
:100ACC00002B0CBF01230023DBB21A461C4B1A600F
:100ADC001B4B1B68002B2BD0184B1B68042B1CD0FA
:100AEC00042B29DC022B02D0032B0BD024E0012297
:100AFC000121144800F055FE01220821114800F094
:100B0C0050FE19E0012202210E4800F04AFE01229B
:100B1C0010210C4800F045FE0EE00122042109488A
:100B2C0000F03FFE01222021064800F03AFE03E0CF
:100B3C00FFF7CEFD00E000BF80BD00BF000000202D
:100B4C0048000020000C014080B400AF144B1B681F
:100B5C00012B20D0134B1B68134A82FB03129210FB
:100B6C00DB17D31A114A13600E4B19680E4B83FB1B
:100B7C0001239A10CB17D21A13469B0013445B0027
:100B8C00CA1A0A4B5A60094B00229A60044B1B6824
:100B9C00064AD36000E000BFBD4680BC704700BF72
:100BAC000000002044000020676666666800002094
:100BBC0080B500AF00F0F4FA00F038F800F0BEF8A1
:100BCC0000F070F8124801F031FA00F01FF9012220
:100BDC000021104800F026F9012200210E4800F0F7
:100BEC0021F9012200210D4800F01CF9642200219A
:100BFC000B4800F017F9192200210A4800F012F9ED
:100C0C0032220021084800F00DF900F0C1F9FCE790
:100C1C007C000020F1010008550B0008F5060008C7
:100C2C00D1080008BD0A00086904000880B590B01E
:100C3C0000AF07F1180328220021184601F0A6FD89
:100C4C003B1D00221A605A609A60DA601A61022316
:100C5C00BB610123BB621023FB6200237B6307F1A2
:100C6C001803184600F0B6FD0346002B01D000F027
:100C7C00C7F80F237B600023BB600023FB600023BD
:100C8C003B6100237B613B1D0021184601F022F8DB
:100C9C000346002B01D000F0B3F800BF4037BD462F
:100CAC0080BD000080B586B000AF07F108030022BC
:100CBC001A605A609A60DA603B4600221A605A60E9
:100CCC001D4B4FF080421A601B4B41F63F725A602D
:100CDC00194B00229A60184B0922DA60164B00223D
:100CEC001A61154B00229A61134801F04FF9034623
:100CFC00002B01D000F084F84FF48053BB6007F157
:100D0C00080319460C4801F0CDFA0346002B01D01C
:100D1C0000F076F800233B6000237B603B461946CD
:100D2C00054801F0A5FC0346002B01D000F068F843
:100D3C0000BF1837BD4680BD7C00002080B586B052
:100D4C0000AF07F1080300221A605A609A60DA605B
:100D5C00284B9B69274A43F004039361254B9B69FD
:100D6C0003F004037B607B68224B9B69214A43F0B0
:100D7C00080393611F4B9B6903F008033B603B68BE
:100D8C0000224FF6F0711C4800F00BFD00224FF2D0
:100D9C00FF311A4800F005FD0E23BB600023FB60F9
:100DAC0000233B6107F108031946134800F068FB68
:100DBC004FF6F073BB600123FB6000233B61022301
:100DCC007B6107F1080319460B4800F059FB4FF201
:100DDC00FF33BB600123FB6000233B6102237B617B
:100DEC0007F108031946054800F04AFB00BF183705
:100DFC00BD4680BD0010024000080140000C0140BF
:100E0C0080B400AF72B600BFFEE7000080B400AF44
:100E1C00034B00221A7000BFBD4680BC704700BF58
:100E2C007800002080B485B000AFF860B9607A60BB
:100E3C00254B1B78272B42D8234B1B781946234A6A
:100E4C000B469B000B449B001344FA681A601E4B24
:100E5C001B7819461D4A0B469B000B449B00134400
:100E6C000433BA681A60184B1B781946174A0B469C
:100E7C009B000B449B00134408337A681A60124B96
:100E8C001B781946114A0B469B000B449B001344DC
:100E9C000C3300221A700C4B1A780B4B1B7819462A
:100EAC0010460A4A0B469B000B449B00134410331C
:100EBC001860054B1B780133DAB2034B1A7000BF74
:100ECC001437BD4680BC704778000020C400002059
:100EDC0080B483B000AF00237B6048E02A497A6875
:100EEC0013469B0013449B000B4404331B68002BDC
:100EFC0013D025497A6813469B0013449B000B447E
:100F0C0004331B68591E20487A6813469B0013440F
:100F1C009B0003440433196026E01B497A6813468E
:100F2C009B0013449B000B440833196816487A68DD
:100F3C0013469B0013449B0003440433196012496D
:100F4C007A6813469B0013449B000B440C331B78AC
:100F5C000133D8B20C497A6813469B0013449B00AA
:100F6C000B440C3302461A707B6801337B60074BD1
:100F7C001B781A467B689342B0DB00BF00BF0C376E
:100F8C00BD4680BC704700BFC40000207800002024
:100F9C0080B582B000AF00237B602BE01B497A68E0
:100FAC0013469B0013449B000B440C331B78002B03
:100FBC001DD016497A6813469B0013449B000B44C2
:100FCC000C331B78013BD8B210497A6813469B004E
:100FDC0013449B000B440C3302461A700B497A687D
:100FEC0013469B0013449B000B441B6898477B687B
:100FFC0001337B60064B1B781A467B689342CDDB32
:10100C0000BF00BF0837BD4680BD00BFC400002034
:10101C007800002080B485B000AF154B9B69144A52
:10102C0043F001039361124B9B6903F00103BB6016
:10103C00BB680F4BDB690E4A43F08053D3610C4BFA
:10104C00DB6903F080537B607B680A4B5B68FB6059
:10105C00FB6823F0E063FB60FB6843F08063FB609C
:10106C00044AFB68536000BF1437BD4680BC704710
:10107C00001002400000014080B584B000AF7860E1
:10108C007B681B68B3F1804F13D10C4BDB690B4AA7
:10109C0043F00103D361094BDB6903F00103FB60EF
:1010AC00FB68002200211C2000F0B3F91C2000F08A
:1010BC00CCF900BF1037BD4680BD00BF0010024008
:1010CC0080B400AFFEE780B400AFFEE780B400AFA1
:1010DC00FEE780B400AFFEE780B400AFFEE780B45B
:1010EC0000AF00BFBD4680BC704780B400AF00BFEE
:1010FC00BD4680BC704780B400AF00BFBD4680BC0D
:10110C00704780B500AF00F091F800BF80BD0000C3
:10111C0080B500AF024800F0D5FF00BF80BD00BF16
:10112C007C00002080B400AF00BFBD4680BC70477F
:10113C0080B582B000AF78607B681B68B3F1804FDC
:10114C0003D1FFF7C5FEFFF7A9F900BF0837BD466D
:10115C0080BD0000FFF7E6FF0B480C490C4A00234A
:10116C0002E0D458C4500433C4188C42F9D3094A51
:10117C00094C002301E013600432A242FBD301F0BE
:10118C00E1FAFFF715FD7047000000202400002055
:10119C00EC27000824000020E8030020FEE70000F4
:1011AC0080B500AF084B1B68074A43F0100313606F
:1011BC00032000F023F90F2000F008F8FFF72AFFB6
:1011CC000023184680BD00BF0020024080B582B0CD
:1011DC0000AF7860124B1A68124B1B7819464FF40B
:1011EC007A73B3FBF1F3B2FBF3F3184600F03BF95F
:1011FC000346002B01D001230EE07B680F2B0AD88D
:10120C00002279684FF0FF3000F003F9064A7B6842
:10121C001360002300E0012318460837BD4680BD4B
:10122C0018000020200000201C00002080B400AF1B
:10123C00054B1B781A46054B1B681344034A136075
:10124C0000BFBD4680BC704720000020E403002096
:10125C0080B400AF024B1B681846BD4680BC70477B
:10126C00E403002080B485B000AF78607B6803F0A5
:10127C000703FB600C4BDB68BB60BA684FF6FF03DF
:10128C001340BB60FB681A02BB68134343F0BF6397
:10129C0043F40033BB60044ABB68D36000BF14370F
:1012AC00BD4680BC704700BF00ED00E080B400AFCD
:1012BC00044BDB681B0A03F007031846BD4680BCD1
:1012CC00704700BF00ED00E080B483B000AF034670
:1012DC00FB7197F90730002B0BDBFB7903F01F0236
:1012EC00064997F907305B09012000FA02F241F830
:1012FC00232000BF0C37BD4680BC704700E100E0E6
:10130C0080B483B000AF03463960FB7197F90730A6
:10131C00002B0ADB3B68DAB20C4997F90730120153
:10132C00D2B20B4483F800230AE03B68DAB20849D6
:10133C00FB7903F00F03043B1201D2B20B441A7673
:10134C0000BF0C37BD4680BC704700BF00E100E019
:10135C0000ED00E080B489B000AFF860B9607A604D
:10136C00FB6803F00703FB61FB69C3F10703042B64
:10137C0028BF0423BB61FB690433062B02D9FB692C
:10138C00033B00E000237B614FF0FF32BB6902FAA4
:10139C0003F3DA43BB681A407B699A404FF0FF3184
:1013AC007B6901FA03F3D9437B680B40134318465E
:1013BC002437BD4680BC704780B582B000AF7860E2
:1013CC007B68013BB3F1807F01D301230FE00A4A14
:1013DC007B68013B53600F214FF0FF30FFF790FF0C
:1013EC00054B00229A60044B07221A600023184612
:1013FC000837BD4680BD00BF10E000E080B582B06C
:10140C0000AF78607868FFF72DFF00BF0837BD4646
:10141C0080BD80B586B000AF0346B9607A60FB73BF
:10142C0000237B61FFF742FF78617A68B9687869BD
:10143C00FFF790FF024697F90F3011461846FFF759
:10144C005FFF00BF1837BD4680BD80B582B000AFCE
:10145C000346FB7197F907301846FFF735FF00BFBD
:10146C000837BD4680BD80B582B000AF7860786823
:10147C00FFF7A2FF034618460837BD4680BD0000A3
:10148C0080B48BB000AF7860396000237B6200239E
:10149C003B6248E101227B6A02FA03F3FB613B6881
:1014AC001B68FA691340BB61BA69FB699A4240F048
:1014BC0037813B685B68A34A93425ED0A14A934252
:1014CC0075D8A14A934258D09F4A93426FD89F4AED
:1014DC00934252D09D4A934269D89D4A93424CD034
:1014EC009B4A934263D89B4A934246D0994A934273
:1014FC005DD8122B2AD8122B59D801A252F823F0FE
:10150C00871500086115000873150008B51500084B
:10151C00BB150008BB150008BB150008BB1500085F
:10152C00BB150008BB150008BB150008BB1500084F
:10153C00BB150008BB150008BB150008BB1500083F
:10154C00BB150008691500087D150008824A9342F6
:10155C0013D02CE03B68DB683B6229E03B68DB681E
:10156C0004333B6224E03B68DB6808333B621FE0DA
:10157C003B68DB680C333B621AE03B689B68002BD2
:10158C0002D104233B6213E03B689B68012B05D11D
:10159C0008233B627B68FA691A6109E008233B6205
:1015AC007B68FA695A6103E000233B6200E000BFEC
:1015BC00BB69FF2B01D87B6801E07B6804337B613E
:1015CC00BB69FF2B02D87B6A9B0002E07B6A083B5D
:1015DC009B003B617B691A680F213B6901FA03F39D
:1015EC00DB431A40396A3B6901FA03F31A437B69FE
:1015FC001A603B685B6803F08053002B00F090800E
:10160C00564B9B69554A43F001039361534B9B69BD
:10161C0003F00103BB60BB68514A7B6A9B08023331
:10162C0052F82330FB607B6A03F003039B000F220C
:10163C0002FA03F3DB43FA681340FB607B68494A08
:10164C0093420DD07B68484A934207D07B68474A47
:10165C00934201D1022304E0032302E0012300E0C2
:10166C0000237A6A02F0030292009340FA68134353
:10167C00FB603B497B6A9B080233FA6841F82320E4
:10168C003B685B6803F48013002B06D0384B9A68D8
:10169C003749BB6913438B6006E0354B9A68BB69CD
:1016AC00DB43334913408B603B685B6803F40013E6
:1016BC00002B06D02E4BDA682D49BB691343CB6047
:1016CC0006E02B4BDA68BB69DB4329491340CB603E
:1016DC003B685B6803F40033002B06D0244B5A683C
:1016EC002349BB6913434B6006E0214B5A68BB6925
:1016FC00DB431F4913404B603B685B6803F480334A
:10170C00002B06D01A4B1A681949BB6913430B609E
:10171C0006E0174B1A68BB69DB43154913400B6095
:10172C007B6A01337B623B681A687B6A22FA03F39B
:10173C00002B7FF4AFAE00BF00BF2C37BD4680BC82
:10174C00704700BF00003210000031100000221062
:10175C0000002110000012100000111000100240B7
:10176C000000014000080140000C01400010014045
:10177C000004014080B485B000AF78600B467B80DC
:10178C007B689A687B881340002B02D00123FB7383
:10179C0001E00023FB73FB7B18461437BD4680BC6D
:1017AC00704780B483B000AF78600B467B801346E3
:1017BC007B707B78002B03D07A887B681A6103E0FE
:1017CC007B881A047B681A6100BF0C37BD4680BC4D
:1017DC007047000080B586B000AF78607B68002B46
:1017EC0001D101236CE27B681B6803F00103002B21
:1017FC0000F08780924B5B6803F00C03042B0CD039
:10180C008F4B5B6803F00C03082B12D18C4B5B687D
:10181C0003F48033B3F5803F0BD1894B1B6803F481
:10182C000033002B6CD07B685B68002B68D10123E4
:10183C0046E27B685B68B3F5803F06D1804B1B6842
:10184C007F4A43F4803313602EE07B685B68002B87
:10185C000CD17B4B1B687A4A23F480331360784B92
:10186C001B68774A23F4802313601DE07B685B6858
:10187C00B3F5A02F0CD1724B1B68714A43F4802333
:10188C0013606F4B1B686E4A43F4803313600BE09C
:10189C006B4B1B686A4A23F480331360684B1B68DC
:1018AC00674A23F4802313607B685B68002B13D09A
:1018BC00FFF7CEFC386108E0FFF7CAFC02463B6933
:1018CC00D31A642B01D90323FAE15D4B1B6803F493
:1018DC000033002BF0D014E0FFF7BAFC386108E0BD
:1018EC00FFF7B6FC02463B69D31A642B01D90323DC
:1018FC00E6E1534B1B6803F40033002BF0D100E0FE
:10190C0000BF7B681B6803F00203002B63D04C4BB9
:10191C005B6803F00C03002B0BD0494B5B6803F0A6
:10192C000C03082B1CD1464B5B6803F48033002B53
:10193C0016D1434B1B6803F00203002B05D07B68C8
:10194C001B69012B01D00123BAE13D4B1B6823F02D
:10195C00F8027B685B69DB00394913430B603AE0A2
:10196C007B681B69002B20D0364B01221A60FFF7D5
:10197C006FFC386108E0FFF76BFC02463B69D31A39
:10198C00022B01D903239BE12D4B1B6803F00203AF
:10199C00002BF0D02A4B1B6823F0F8027B685B69A4
:1019AC00DB00274913430B6015E0264B00221A601D
:1019BC00FFF74EFC386108E0FFF74AFC02463B6932
:1019CC00D31A022B01D903237AE11D4B1B6803F0B8
:1019DC000203002BF0D17B681B6803F00803002B7B
:1019EC003AD07B689B69002B19D0174B01221A60E7
:1019FC00FFF72EFC386108E0FFF72AFC02463B6932
:101A0C00D31A022B01D903235AE10D4B5B6A03F065
:101A1C000203002BF0D0012000F09AFA1CE00A4BD4
:101A2C0000221A60FFF714FC38610FE0FFF710FC7E
:101A3C0002463B69D31A022B08D9032340E100BFAD
:101A4C000010024000004242800442429E4B5B6AFE
:101A5C0003F00203002BE9D17B681B6803F004033D
:101A6C00002B00F0A6800023FB75974BDB6903F07D
:101A7C008053002B0DD1944BDB69934A43F0805378
:101A8C00D361914BDB6903F08053BB60BB680123CE
:101A9C00FB758E4B1B6803F48073002B18D18B4B9A
:101AAC001B688A4A43F480731360FFF7D1FB3861DB
:101ABC0008E0FFF7CDFB02463B69D31A642B01D932
:101ACC000323FDE0814B1B6803F48073002BF0D0E3
:101ADC007B68DB68012B06D17B4B1B6A7A4A43F08F
:101AEC00010313622DE07B68DB68002B0CD1764B75
:101AFC001B6A754A23F001031362734B1B6A724A0B
:101B0C0023F0040313621CE07B68DB68052B0CD10B
:101B1C006D4B1B6A6C4A43F0040313626A4B1B6ADD
:101B2C00694A43F0010313620BE0674B1B6A664A78
:101B3C0023F001031362644B1B6A634A23F0040312
:101B4C0013627B68DB68002B15D0FFF781FB3861D3
:101B5C000AE0FFF77DFB02463B69D31A41F288325B
:101B6C00934201D90323ABE0574B1B6A03F00203EA
:101B7C00002BEED014E0FFF76BFB38610AE0FFF7A7
:101B8C0067FB02463B69D31A41F28832934201D972
:101B9C00032395E04C4B1B6A03F00203002BEED1A0
:101BAC00FB7D012B05D1484BDB69474A23F0805361
:101BBC00D3617B68DB69002B00F08180424B5B6852
:101BCC0003F00C03082B61D07B68DB69022B46D138
:101BDC003F4B00221A60FFF73BFB386108E0FFF730
:101BEC0037FB02463B69D31A022B01D9032367E06A
:101BFC00354B1B6803F00073002BF0D17B681B6A1C
:101C0C00B3F5803F08D1304B5B6823F400327B681E
:101C1C009B682D4913434B602B4B5B6823F4741268
:101C2C007B68196A7B685B6A0B43274913434B60DB
:101C3C00274B01221A60FFF70BFB386108E0FFF716
:101C4C0007FB02463B69D31A022B01D9032337E069
:101C5C001D4B1B6803F00073002BF0D02FE01C4BC6
:101C6C0000221A60FFF7F4FA386108E0FFF7F0FA87
:101C7C0002463B69D31A022B01D9032320E0124BF5
:101C8C001B6803F00073002BF0D118E07B68DB6954
:101C9C00012B01D1012313E00B4B5B68FB60FB684C
:101CAC0003F480327B681B6A9A4206D1FB6803F40A
:101CBC0070127B685B6A9A4201D0012300E000231A
:101CCC0018461837BD4680BD001002400070004019
:101CDC006000424280B584B000AF786039607B68A8
:101CEC00002B01D10123D0E06A4B1B6803F00703E2
:101CFC003A689A4210D9674B1B6823F00702654972
:101D0C003B6813430B60634B1B6803F007033A6893
:101D1C009A4201D00123B8E07B681B6803F00203F0
:101D2C00002B20D07B681B6803F00403002B05D02C
:101D3C00594B5B68584A43F4E06353607B681B68FB
:101D4C0003F00803002B05D0534B5B68524A43F455
:101D5C0060535360504B5B6823F0F0027B689B68C8
:101D6C004D4913434B607B681B6803F00103002B48
:101D7C0040D07B685B68012B07D1474B1B6803F491
:101D8C000033002B15D101237FE07B685B68022BAD
:101D9C0007D1414B1B6803F00073002B09D10123C1
:101DAC0073E03D4B1B6803F00203002B01D10123B0
:101DBC006BE0394B5B6823F003027B685B68364948
:101DCC0013434B60FFF744FAF8600AE0FFF740FA60
:101DDC000246FB68D31A41F28832934201D903239D
:101DEC0053E02D4B5B6803F00C027B685B689B0037
:101DFC009A42EBD1274B1B6803F007033A689A42CF
:101E0C0010D2244B1B6823F0070222493B68134372
:101E1C000B60204B1B6803F007033A689A4201D011
:101E2C00012332E07B681B6803F00403002B08D00D
:101E3C00194B5B6823F4E0627B68DB68164913433B
:101E4C004B607B681B6803F00803002B09D0124B16
:101E5C005B6823F460527B681B69DB000E491343FB
:101E6C004B6000F021F802460B4B5B681B0903F03A
:101E7C000F030A49CB5C22FA03F3094A1360094B9E
:101E8C001B681846FFF7A2F9002318461037BD4609
:101E9C0080BD00BF0020024000100240C027000897
:101EAC00180000201C00002080B487B000AF002375
:101EBC00FB600023BB6000237B6100237B6000235D
:101ECC003B611E4B5B68FB60FB6803F00C03042B4F
:101EDC0002D0082B03D027E0194B3B6127E0FB68AD
:101EEC009B0C03F00F03174AD35C7B60FB6803F475
:101EFC008033002B10D0114B5B685B0C03F001039B
:101F0C00114AD35CBB607B680D4A02FB03F2BB68D1
:101F1C00B2FBF3F37B6104E07B680C4A02FB03F336
:101F2C007B617B693B6102E0054B3B6100BF3B6918
:101F3C0018461C37BD4680BC704700BF00100240DD
:101F4C0000127A00D0270008E027000800093D00A5
:101F5C0080B485B000AF78600A4B1B680A4AA2FBBC
:101F6C0003235B0A7A6802FB03F3FB6000BFFB6888
:101F7C005A1EFA60002BF9D100BF00BF1437BD46C2
:101F8C0080BC704718000020D34D621080B582B021
:101F9C0000AF78607B68002B01D1012341E07B68A6
:101FAC0093F83D30DBB2002B06D17B68002283F81E
:101FBC003C207868FFF760F87B68022283F83D20AC
:101FCC007B681A687B6804331946104600F056FA91
:101FDC007B68012283F846207B68012283F83E202F
:101FEC007B68012283F83F207B68012283F8402024
:101FFC007B68012283F841207B68012283F8422010
:10200C007B68012283F843207B68012283F84420FB
:10201C007B68012283F845207B68012283F83D20F0
:10202C00002318460837BD4680BD000080B485B03B
:10203C0000AF78607B6893F83D30DBB2012B01D0A8
:10204C00012335E07B68022283F83D207B681B6806
:10205C00DA687B681B6842F00102DA607B681B68F7
:10206C00164A934209D07B681B68B3F1804F04D0A9
:10207C007B681B68124A934211D17B681B689B6872
:10208C0003F00703FB60FB68062B10D07B681B6812
:10209C001A687B681B6842F001021A6007E07B68D3
:1020AC001B681A687B681B6842F001021A600023E7
:1020BC0018461437BD4680BC704700BF002C014049
:1020CC000004004080B584B000AF78607B681B686A
:1020DC00DB68FB607B681B681B69BB60BB6803F03B
:1020EC000203002B20D0FB6803F00203002B1BD053
:1020FC007B681B686FF002021A617B6801221A77F9
:10210C007B681B689B6903F00303002B03D0786882
:10211C0000F098F905E0786800F08BF9786800F029
:10212C009AF97B6800221A77BB6803F00403002B32
:10213C0020D0FB6803F00403002B1BD07B681B68CA
:10214C006FF004021A617B6802221A777B681B68A5
:10215C009B6903F44073002B03D0786800F072F98C
:10216C0005E0786800F065F9786800F074F97B6830
:10217C0000221A77BB6803F00803002B20D0FB6801
:10218C0003F00803002B1BD07B681B686FF0080260
:10219C001A617B6804221A777B681B68DB6903F081
:1021AC000303002B03D0786800F04CF905E0786845
:1021BC0000F03FF9786800F04EF97B6800221A773E
:1021CC00BB6803F01003002B20D0FB6803F0100356
:1021DC00002B1BD07B681B686FF010021A617B68A8
:1021EC0008221A777B681B68DB6903F44073002BA9
:1021FC0003D0786800F026F905E0786800F019F94A
:10220C00786800F028F97B6800221A77BB6803F025
:10221C000103002B0CD0FB6803F00103002B07D04B
:10222C007B681B686FF001021A617868FEF780FF0B
:10223C00BB6803F08003002B0CD0FB6803F0800319
:10224C00002B07D07B681B686FF080021A617868DE
:10225C0000F06FFABB6803F04003002B0CD0FB6856
:10226C0003F04003002B07D07B681B686FF0400223
:10227C001A61786800F0F8F8BB6803F02003002BB3
:10228C000CD0FB6803F02003002B07D07B681B6885
:10229C006FF020021A61786800F042FA00BF103724
:1022AC00BD4680BD80B584B000AF78603960002336
:1022BC00FB737B6893F83C30012B01D10223B4E013
:1022CC007B68012283F83C207B68022283F83D2046
:1022DC007B681B689B68BB60BB6823F07703BB60A3
:1022EC00BB6823F47F43BB607B681B68BA689A6049
:1022FC003B681B68B3F5005F3ED0B3F5005F00F29E
:10230C008780B3F5805F00F08680B3F5805F7FD85F
:10231C00702B1AD0702B7BD8602B50D0602B77D8B9
:10232C00502B3CD0502B73D8402B58D0402B6FD80F
:10233C00302B64D0302B6BD8202B60D0202B67D85F
:10234C00002B5CD0102B5AD062E07B6818683B687D
:10235C0099683B685A683B68DB6800F06AF97B68EF
:10236C001B689B68BB60BB6843F07703BB607B68F2
:10237C001B68BA689A604FE07B6818683B6899687C
:10238C003B685A683B68DB6800F053F97B681B6854
:10239C009A687B681B6842F480429A603CE07B68D8
:1023AC0018683B6859683B68DB681A4600F0CAF845
:1023BC007B681B685021184600F021F92CE07B68E3
:1023CC0018683B6859683B68DB681A4600F0E8F807
:1023DC007B681B686021184600F011F91CE07B68D3
:1023EC0018683B6859683B68DB681A4600F0AAF825
:1023FC007B681B684021184600F001F90CE07B68F3
:10240C001A683B681B681946104600F0F8F803E0A0
:10241C000123FB7300E000BF7B68012283F83D20A1
:10242C007B68002283F83C20FB7B18461037BD46A6
:10243C0080BD80B483B000AF786000BF0C37BD4660
:10244C0080BC704780B483B000AF786000BF0C379D
:10245C00BD4680BC704780B483B000AF786000BFCD
:10246C000C37BD4680BC704780B483B000AF786039
:10247C0000BF0C37BD4680BC7047000080B485B0EF
:10248C0000AF786039607B681B68FB607B682B4A07
:10249C00934207D07B68B3F1804F03D07B68284A06
:1024AC00934208D1FB6823F07003FB603B685B68C8
:1024BC00FA681343FB607B68204A934207D07B6821
:1024CC00B3F1804F03D07B681D4A934208D1FB685F
:1024DC0023F44073FB603B68DB68FA681343FB60D2
:1024EC00FB6823F080023B685B691343FB607B68ED
:1024FC00FA681A603B689A687B68DA623B681A680B
:10250C007B689A627B680D4A934203D13B681A69D7
:10251C007B681A637B6801225A617B681B6903F034
:10252C000103002B05D07B681B6923F001027B683B
:10253C001A6100BF1437BD4680BC7047002C0140A7
:10254C000004004080B487B000AFF860B9607A60D6
:10255C00FB681B6A7B61FB681B6A23F00102FB684A
:10256C001A62FB689B693B613B6923F0F0033B619A
:10257C007B681B013A6913433B617B6923F00A03B7
:10258C007B617A69BB6813437B61FB683A699A612A
:10259C00FB687A691A6200BF1C37BD4680BC704765
:1025AC0080B487B000AFF860B9607A60FB681B6AD2
:1025BC007B61FB681B6A23F01002FB681A62FB68E4
:1025CC009B693B613B6923F470433B617B681B0354
:1025DC003A6913433B617B6923F0A0037B61BB68C1
:1025EC001B017A6913437B61FB683A699A61FB684A
:1025FC007A691A6200BF1C37BD4680BC704780B434
:10260C0085B000AF786039607B689B68FB60FB68C5
:10261C0023F07003FB603A68FB68134343F0070335
:10262C00FB607B68FA689A6000BF1437BD4680BCBB
:10263C00704780B487B000AFF860B9607A603B60D7
:10264C00FB689B687B617B6923F47F437B613B6800
:10265C001A027B681A43BB6813437A6913437B6184
:10266C00FB687A699A6000BF1C37BD4680BC704716
:10267C0080B485B000AF786039607B6893F83C30EB
:10268C00012B01D1022341E07B68012283F83C201D
:10269C007B68022283F83D207B681B685B68FB60CB
:1026AC007B681B689B68BB60FB6823F07003FB6056
:1026BC003B681B68FA681343FB607B681B68FA680D
:1026CC005A607B681B68144A934209D07B681B686C
:1026DC00B3F1804F04D07B681B68104A93420CD135
:1026EC00BB6823F08003BB603B685B68BA6813432C
:1026FC00BB607B681B68BA689A607B68012283F8B0
:10270C003D207B68002283F83C20002318461437B8
:10271C00BD4680BC704700BF002C01400004004047
:10272C0080B483B000AF786000BF0C37BD4680BC6E
:10273C00704780B483B000AF786000BF0C37BD46E3
:10274C0080BC704770B500260C4D0D4C641BA4105A
:10275C00A64209D100F022F800260A4D0A4C641B4F
:10276C00A410A64205D170BD55F8043B984701361C
:10277C00EEE755F8043B98470136F2E7E4270008EA
:10278C00E4270008E4270008E82700080346024471
:10279C00934200D1704703F8011BF9E7F8B500BF6D
:1027AC00F8BC08BC9E467047F8B500BFF8BC08BC26
:0427BC009E4670477E
:1027C00000000000000000000102030406070809E1
:1027D00002030405060708090A0B0C0D0E0F101062
:0427E00001020000F2
:0427E40031010008B7
:0427E8000D010008D7
:1027EC0001000000050000000200000003000000D2
:1027FC00050000000300000000127A001000000029
:04280C0001000000C7
:04000005080011617D
:00000001FF
